:020000020000FC
:1040000030400440FF3F31400039B0127E760C93BF
:104010000F243C403E113E40531CB0123A7A3C40C3
:1040200000113E40E07D30123D00B0124C7A215329
:10403000B0128876B012DA780A120A4C6C4A3CF058
:10404000FF00B01242550C9303240C4AB0125440A6
:104050003A4130410A120B1208120A4C3B403E1101
:1040600038401E00385308934038CB9312003A2052
:10407000C2935B2D14200F4AFFF01F0000005E4A20
:1040800001003EF0FF003E530C4AB01276525F4AE8
:1040900001003FF0FF000E4A0E5FCE4CFFFF5F4A6B
:1040A00001003FF0FF000F120E4A0C4BB012027AD3
:1040B000DB4A01001200CB4313008B4314009B42E8
:1040C0001014160021538293101404241F4210145C
:1040D0008F4B1400824B101482930E140620824BD7
:1040E0000E14033C3B501800BD3F3040E8780A12E4
:1040F0000B120B4C6A4B4F4A3FF0FF003FF0E000C1
:104100005E42B2187EF0E0004F9E02240C430F3C4A
:104110004C4A3CF0FF003CF01F00B01242550C939B
:1041200002200C43043C0C4BB01254401C433B4156
:104130003A4130413C400E00B012B64F0C93162469
:10414000B012A27A3E400F00B01210790F4E0E5EF0
:104150000E5E0F5E0E5E0E5F3E5033003C400E0062
:10416000B0122A4F1C420E14B012D24130410E43FD
:104170003E90050009340D4C0D5E0F4C0F5EDF4D77
:10418000010000001E53F43F30410F4CFF907700B8
:104190000100062CEF9201000328CF9300000220BB
:1041A0005C4330415D4F02007DF0F0007D903000B7
:1041B00002204C4330410E43CE93DC7C0824DF9E2A
:1041C000DC7C020002204C4330411E53F53F5C432F
:1041D00030410A120A4C0A9302200C43623CF2401E
:1041E000F0001A18F2400F001B18C2431C18F240CE
:1041F00011001E18E2431F18D2429C1821181E42BB
:104200009C188E103EF0FF00C24E201892539C184E
:10421000F2407F002218D2423C11291830120400CB
:104220003E407C183C402418B012027AD243281831
:10423000D242532D2318B2402A1802115F4A1200AD
:104240003FF0FF000F120E4A1C420211B012027A18
:104250001F420211E24F1D18D25A12001E18DA42F4
:104260003C1113005F4A12003FF0FF00825F021111
:104270005E421E183EF0FF003E533C401A18B0123A
:1042800076521F420211CF4C00005E421E183EF0D3
:10429000FF003C401A18B0123A4CB0128C521C432A
:1042A00021523A4130410A120A4C8A9314000524E3
:1042B0001F4A14009F4A160016008A931600052410
:1042C0001F4A16009F4A14001400829A0E140320FD
:1042D000924A14000E14829A10140320924A160077
:1042E0001014301218000E430C4AB0121E7A2153DB
:1042F0003A4130410A120B120A4C1A931F383A9075
:1043000000011C341B420E140B931824CB93120093
:1043100011246F4B3FF0FF000F9A0C205E4B1200F0
:104320003EF0FF000C4BB0126A4E0C4BB012A6428E
:104330001C43053C0F4B1B4F1400E63F0C433B4115
:104340003A4130410A120B12081232C20343B24002
:10435000805A20014A437A901900152C3012260009
:104360000E430B4E384012144C4A3CF0FF003E40C6
:104370002600B0125C7A085C0C480E4BB0121E7A14
:104380005A532153E83FF24070002200C2432600F6
:10439000C2432100C2432500C2432400F2401F0053
:1043A0002A00C2432E00C2432900C2432C00C2434C
:1043B0002D00F2405F001A00F240F0001B00C243E3
:1043C0001900F2408F001E00C2431F00C2431D00AF
:1043D000F2400F003200C2433300F2433100F2409A
:1043E00070003600F24080003700F2407000350067
:1043F000F240F0005700F240D0005800E2B3020053
:104400001E28E2C302000E432F423E533F630B4E71
:104410000BDF0B930624E2B302000328E2C3020081
:10442000F43F0E432F423E533F630B4E0BDF0B9383
:10443000E527E2B30200E22BE2C30200F43F32D2EE
:10444000A2C3A001B240F0CCA001B240E602A2019A
:10445000F24087008000B2D00300A001B012E44E09
:104460003040E878FF3F5C4234003CF0FF003CF015
:104470000F003CE00F0030415C4220003CF0FF00A8
:104480003CF00F003CE00F0030415C4230007CF318
:10449000B012F4793CF0FF003CE00F003041B01264
:1044A0006644C24C282AB0127844C24C292AB01261
:1044B0008A44C24C2A2AB0122264C24C2B2A3041B0
:1044C000B0126644C29C282A0F20B0127844C29CC5
:1044D000292A0A20B0128A44C29C2A2A0520B01236
:1044E0002264C29C2B2A0B245E422C2A5E53C24EAD
:1044F0002C2A7E90FB0005280C4330406444C243C4
:104500002C2A30413F4009003F530F930D24E2C352
:1045100031004C930334D2D33100023CD2C331007A
:10452000E2D331004C5CF03FE2C3310030414F4CEC
:104530004C433FF0FF00EFB25F7D05283FF0FF00E6
:104540005C4FE6101F3C3FF0FF00FFB003005F7DB3
:1045500011243FF0FF00EFB35F7D06284D4F3DF083
:10456000FF003DF05F00033C4D4F3DF0FF005C4D10
:10457000DF10083C4D4F7D802D0003207C40BF00A4
:10458000013C7C430E9302247CC0800030410A121F
:104590000B12081209124B4C4A4E58410A0019419D
:1045A0000C00F2C23100E2C2310039900300022057
:1045B0005E43013C4E433EF0FF004C48B0122E4596
:1045C000B0120445299302205E43013C4E433EF065
:1045D000FF004C4AB0122E45B01204451993022038
:1045E0005E43013C4E433EF0FF004C4BB0122E4563
:1045F000B0120445E2D231003040E6785E4C030050
:104600003EF0FF000F433EF0C0000FF3824EC8178C
:10461000824FCA17D242CA17CB17D242C917CA173C
:10462000D242C817C917C243C8175E4C04003EF0F7
:10463000FF000F4382DEC81782DFCA17D242CA17B3
:10464000CB17D242C917CA17D242C817C917C243DB
:10465000C8175E4C05003EF0FF000F4382DEC8170E
:1046600082DFCA17D242CA17CB17D242C917CA175C
:10467000D242C817C917C243C8175E4C06003EF0A5
:10468000FF003EF003000F4E3FE30F5F0F7F82DE1F
:10469000C81782DFCA175F4C07003FF0FF00824F48
:1046A000CC17B2F0FF00CC179210CC175F4C08006B
:1046B0003FF0FF0082DFCC1730410A120B120812C4
:1046C00009120B4C0C4BB012FC454A437A9019006E
:1046D0001C2C4C4A3CF0FF003E402600B0125C7A95
:1046E000929C1214C8170F20929C1414CA170B2006
:1046F0004C4A3CF0FF003E402600B0125C7A929C8F
:104700001614CC1702245A53E13F7A9019002E2038
:104710004A437A901900272C4C4A3CF0FF003E4057
:104720002600B0125C7A1F4C12141FDC14140F9375
:1047300018204C4A3CF0FF003E402600B0125C7A44
:104740009C42C81712149C42CA1714144C4A3CF0DD
:10475000FF003E402600B0125C7A9C42CC17161433
:10476000023C5A53D63F7A9019003924394012142A
:104770004C4A3CF0FF003E402600B0125C7A095CD7
:1047800008494A437A92172C3AF0FF000F480F5A13
:10479000EF9B0E0010243AF0FF000F480F5ACF9302
:1047A0000E0007203AF0FF000F480F5AEF4B0E00A3
:1047B000023C5A53E73F7A9212244F4A3FF0FF00DF
:1047C0000F5F0E480E5F5F4B09003FF0FF008E5FEA
:1047D00016003AF0FF000F480F5ADF530600304032
:1047E000E6780A120B1208120912061207120412B6
:1047F00005120B4C58430C4BB012FC454A437A90BF
:1048000019001C2C4C4A3CF0FF003E402600B01220
:104810005C7A929C1214C8170F20929C1414CA1729
:104820000B204C4A3CF0FF003E402600B0125C7A60
:10483000929C1614CC1702245A53E13F7A90190027
:104840007A2404434C4A3CF0FF003E402600B0125C
:104850005C7A8C4416140E440F43044E054F4C4AA8
:104860003CF0FF003E402600B0125C7A0E440F453B
:104870008C4E12148C4F1414674B344012144C4A53
:104880003CF0FF003E402600B0125C7A045C064417
:104890004A437A923C2C3AF0FF000F460F5ACF93CE
:1048A0000E0035244F4A3FF0FF000F5F0E460E5FAB
:1048B0001C4E16003AF0FF000F460F5A5E4F0600DE
:1048C0003EF0FF00B012F478494C4899072C484953
:1048D0003AF0FF000F460F5A574F0E004F433AF081
:1048E000FF000E460E5ACE4F0E003AF0FF000E4665
:1048F0000E5ACE4F06003FF0FF004E4A3EF0FF003A
:104900000E5E0D460D5E8D4F16005A53C23FCB47CB
:104910000000CB4809005E4B01003EF0FF003E5313
:104920000C4BB01276525F4B01003FF0FF000E4B74
:104930000E5FCE4CFFFF3040DE780A1221838143A8
:1049400000003C401000B012B64F0C9322243E40B1
:1049500000B43C401000B0122A4F9253CE17C293BD
:104960005B2D0824B2902800CE1713288243CE175F
:104970001C43103CB2901400CE170B288243CE1774
:104980000C41B01214730A4C3A90EA0102341C43F1
:10499000013C0C4321533A413041F2C21D003041E9
:1049A000F2D21D003041B2402D2AD017B2402D2A3C
:1049B000D217B240FF01D6178243D417301200023B
:1049C0000E433C402D2AB0121E7AB2402D2CD8172F
:1049D000B2402D2CDA17B2401F00DE178243DC17DD
:1049E000301220000E433C402D2CB0121E7AF2D023
:1049F00030001B00F2D010001A00F2C020001A0094
:104A0000F24011007000F2D0C0000400F2F03F004C
:104A10000000C2437500F2406D007400C243730091
:104A2000F24010007100F2427200D2C37000F2D066
:104A300040000000B0129A49215230410C930224E8
:104A40005E43013C4E43C24E4D2C3041F2C08000CB
:104A500002008293D4171524B253D4179253D61759
:104A60001F42D217E24F77009253D2179253E017AA
:104A7000B2902D2CD2170328B2402D2AD2171C43F6
:104A800030410C4330410C120F12F2C08000020082
:104A9000D2934D2C0424F2B010001C00082CB0124C
:104AA0004C4A0C930720F2C080000000033CF2C087
:104AB000800000003F413C410013D2934D2C042460
:104AC000F2B010001C00162C8293D4171324C2934A
:104AD00000000634C29302000D38D2B371000A28D8
:104AE000F2C080000000B0124C4A0C930324F2D0B4
:104AF0008000000030410D120C120F120E125E42A7
:104B000072007EB0E1000624F2F01E0072005E42E8
:104B10007600223C8293DE171D245F4276001D4200
:104B2000D817CD4F00009253D8177F9080000124F2
:104B30004E439253DC17B253DE17B2904D2CD81768
:104B40000328B2402D2CD817B292DE170534B012CC
:104B5000A049023C5E4276003E413F413C413D411E
:104B600000138293D41702205C43013C4C433CF079
:104B7000FF0030410F4CB2901900DE170238B0121E
:104B80009A498293DC171F24F2C040000000B25300
:104B9000DC179253DE171E42DA17EF4E00009253D5
:104BA000DA17B2904D2CDA170328B2402D2CDA1701
:104BB000F2D040000000B2901900DE170238B012A7
:104BC0009A491C433041B0129A490C4330414E4C33
:104BD0009293D6173038F2C0800000001F42D017E1
:104BE000CF4E00009253D017B2902D2CD01703282F
:104BF000B2402D2AD017B253D6179253D417C2936E
:104C00004D2C0620F2B010001C0002281C4330413D
:104C1000D2B371000B28F2C080000200B0124C4ADF
:104C20000C930724F2D080000000033CF2D08000F7
:104C300000001C4330410C4330410A120B120A4C55
:104C40000B4E3E4040003C400300B0122A4F0B93F5
:104C50000F246C4AB012CE4B0C9307203C4003004B
:104C6000B012B64F0C930420F43F1A533B53EF3F5E
:104C70003B413A413041B2404E2CE217B2404E2CFB
:104C8000E417B2400F00E8178243E6173012100015
:104C90000E433C404E2CB0121E7AB2405E2CEA17F6
:104CA000B2405E2CEC17B2401F00F0178243EE17A3
:104CB000301220000E433C405E2CB0121E7AF2D01F
:104CC000C0001B00F2D040001A00F2C080001A00A1
:104CD000F240910078002152C2935B2D0320F2D064
:104CE00040007800F2D030000500F2F0CF00010063
:104CF000C2437D00F24036007C00C2437B00F2409C
:104D000010007900F2427A00D2C37800F2D010008D
:104D1000010030418293E6171524F2D21900B253F4
:104D2000E6179253E8171F42E417E24F7F009253B1
:104D3000E417B2905E2CE4170328B2404E2CE4171F
:104D40001C4330410C4330418293E6170720D2B315
:104D500079000428F2C219001C4330418293E617FF
:104D60000524D2B379000228B012144D0C4330410F
:104D70000C120F12B012144D0C930320F2C020003D
:104D800001003F413C4100130A120D120C120F1298
:104D90000E12F2F01E007A008293F0171B24925339
:104DA000EE17B253F0171F42EA17DF427E000000F1
:104DB0009253EA17B2907E2CEA170328B2405E2C79
:104DC000EA17E2D329003E4006003C400B00B01237
:104DD0002A4F023C5A427E003E413F413C413D4108
:104DE0003A4100130F4C8293EE171924F2C01000C1
:104DF0000100B253EE179253F0171E42EC17EF4E1C
:104E000000009253EC17B2907E2CEC170328B240AE
:104E10005E2CEC17F2D0100001001C4330410C4313
:104E200030414E4C9293E8171E38F2C0200001002A
:104E30001F42E217CF4E00009253E217B2905E2C51
:104E4000E2170328B2404E2CE217B253E8179253F0
:104E5000E617D2B379000228B012144DF2D0200028
:104E600001001C4330410C4330410A120B120A4C22
:104E70000B4E3E4019002C42B0122A4F0B930E24C9
:104E80006C4AB012224E0C9306202C42B012B64F40
:104E90000C930420F53F1A533B53F03F3B413A41FA
:104EA0003041301222000E433C40F217B0121E7AFD
:104EB00082438001B24000049201B240100082019E
:104EC00082438401824386018243880182438A01AE
:104ED00082438C0182438E01B240D40180011C4385
:104EE0002153304132C20343B012A24E32D230417C
:104EF0000D120F120E12A2D28001B250000414182B
:104F0000925318180F433F9011000B340E4F0E5E52
:104F10008E93F21704240E4F0E5EBE53F2171F53EA
:104F2000F23F3E413F413D4100133C9011000B34A4
:104F30000E9305240F4C0F5F8F4EF21730410F4C2C
:104F40000F5F9F43F21730410A123C901100313439
:104F50000D4C0D5D0F4E12C30F100F118D9FF217E8
:104F6000052C0F4C0F5F8F5EF217233C0D4C0D5D2F
:104F70000F4E12C30F108D9FF217082C0D4C0D5DB4
:104F80000F4E12C30F108D5FF217133C0A4C0A5AD2
:104F90000D4E12C30D100D110F4E0F8D8A9FF2177B
:104FA000082C0D4C0D5D0F4E12C30F100F118D5FAD
:104FB000F2173A4130410F4C3F9011000A340F5F15
:104FC0008F93F21702205C43013C4C433CF0FF00FE
:104FD00030410C4330418243181892429001161818
:104FE00030410A120812184290011F4218180E4F41
:104FF0000F5F0E5F0F5F0F5E0A4F189216181E2488
:1050000082981618092C0C481C8216183E409200F3
:10501000B012F4780A5C123C3C4000040D431E427E
:1050200016180F430C8E0D7F0E480F430C5E0D6F4C
:105030003E4092000F43B01278790A5C0C4A384126
:105040003A413041D242812C582DF2900C00582D1B
:105050000320F242572D033CD242852C572D5C424F
:105060007F2C3CF0FF003C50F8FF5E42572D3EF095
:10507000FF00B0121079C24C562D5C42832C3CF0DC
:10508000FF005F42842C3FF0FF000C5F2E43B01204
:105090001079C24C5A2DF2400B007F2CF240930045
:1050A000802C30410A120B124D4C3DF0FF00D24DC6
:1050B0007F2C592D3DF0FF005E4D832C7EF0F000DB
:1050C0007E90600022203DF0FF00D24D812C822C8A
:1050D0003DF0FF00D24D822C832C3DF0FF005E4D51
:1050E000832C12C34E104E117EF03C00C24E842C15
:1050F0003DF0FF00D24D842C852C3DF0FF00D24DB9
:10510000852C862CC243872C5A3C3DF0FF005C4D19
:10511000812CB012BA79C24C812C3DF0FF005C4D5D
:10512000822CB012BA794A4C3DF0FF005E4D812CC2
:1051300012C34E104E114B4E4E4A4EDBC24E822CC5
:105140003DF0FF005C4D832CB012BA794A4C3DF023
:10515000FF005E4D822C12C34E104E114B4E4E4A34
:105160004EDBC24E832C3DF0FF005E4D832C12C3FC
:105170004E104E11C24E842C3DF0FF005E4D842C2B
:1051800012C34E104E117EF03E004A4E3DF0FF001D
:105190005C4D852CB012BA794B4C4E4A4EDBC24E58
:1051A000852C3DF0FF005E4D852C12C34E104E1134
:1051B0007EF01F00C24E862CD242592D872C5E42B3
:1051C0007F2C3EF0FF003E533C407E2CB0127652C6
:1051D0005F427F2C3FF0FF00CF4C7D2C3B413A419A
:1051E00030410A120B120A4C6E4A4F4E3FF0FF003C
:1051F0000F5F1C4FC623B012F8790B4C4F4E3FF097
:10520000FF000F5F8F8BC6235D4A05003DF0FF0056
:105210005F4A06003FF0FF000D5F0B4D4F4E3FF021
:10522000FF000F5F8F5BC6234F4E3FF0FF000F5F05
:105230001C4FC623B012F4790B4C4F4B3EF0FF00CD
:10524000CE4F602D3B413A4130418293C223122020
:10525000B012A27A3E400F00B01210790F4E0E5ECF
:105260000E5E0F5E0E5E0E5F3E5040003C400E0034
:10527000B0122A4F30410F4C5C433E530E9303381B
:105280006C5F1F53FA3F3CF0FF003041D243512D79
:105290009253A6188263A818B2901000A818162876
:1052A00003208293A618122812C31210A8181210F5
:1052B000A6181211A8181210A61812C31210A418BA
:1052C0001210A2181211A4181210A21830410A12BA
:1052D0000B1208120D4C5E4D07003EF0FF005F4DB3
:1052E00006003FF0FF003FF0FF008F100FDE0A4F77
:1052F0003B40BC1838404100385308930C24DB9DD8
:105300000200020005208B9A000002201C43043C8E
:105310003B500600F13F0C433040E8781F423C1AF6
:105320000F5F0E4F0F5F0F5EDF4C0200BE185E4C2A
:1053300007003EF0FF005F4C06003FF0FF003FF02B
:10534000FF008F100FDE1E423C1A0E5E0D4E0E5EE9
:105350000E5D8E4FBC1892533C1AB29040003C1A1E
:10536000023882433C1A30410A120B1208124D4C8B
:105370004C4D7CF3B012F0793CF0FF000C5C0C5CFF
:105380008CDE7C188CDF7E187DF0E0001A433B40F9
:105390001F003B530B9326381EB31F28484D38F08F
:1053A000FF0008DA3890FA001D34484D38F0FF004D
:1053B00008DA08580C480858085C8893062402202C
:1053C000D253522D484D38F0FF0008DA08580C48E7
:1053D0000858085CB840A105062412C30F100E102F
:1053E0001A53D73F3040E8780A120B1208120A4CC1
:1053F0000F4E1B4108000F9B13380C4BB012E47981
:105400000C5C0C5C084A085C1C430D434E4B7EF060
:105410001F007E53B012C87988DC000088DD0200CE
:105420003040E8780A120A4C3A90FA0024340A1202
:105430003E4000013C407C18B012E8530F4A0F5F19
:105440000E4F0F5F0F5E21538F9306240220D2531D
:10545000522DC2935B2D08240A5A0F4A0A5A0A5F3A
:10546000BA40A1050624073C0A5A0F4A0A5A0A5FA5
:10547000BA40400006243A4130410A120B12081289
:105480000A4C0F4E1B4108000F9B13380C4BB012F7
:10549000E4790C5C0C5C084A085C1C430D434E4BE1
:1054A0007EF01F007E53B012C87988CC000088CDF2
:1054B00002003040E8780A120A4C0A123E4000010D
:1054C0003C407C18B0127A54F253522D2153B290C2
:1054D000E703B61802349253B6180F4A0F5F0E4F07
:1054E0000F5F0F5E8F4306240A123E401F003C40B0
:1054F0003E1AB0127A5421533A4130410A120A4CF2
:105500000F4E1E4104000F9E19380C4EB012E47964
:105510000C5C0C5C0A5C1C430D437EF01F007E5348
:10552000B012C8798ABC000003208ABD02000224A0
:105530005C43013C4C433CF0FF00013C0C433A41CE
:1055400030410A120A4C0A123E4000013C407C18CD
:10555000B012FC5421533A4130410A120A4C0A124B
:105560003E401F003C403E1AB012FC5421533A41C9
:1055700030410A120A4C0A123E401F003C40AC184F
:10558000B012FC5421533A4130410A120A4CC24332
:10559000542D0C4AB0125A550C930224D243542D68
:1055A0003A4130410A123C400600B012B64F0C930B
:1055B00073243E4020003C400600B0122A4FE2C354
:1055C00029008293B0180224B253B0181A433A90BB
:1055D000FA002B340F4A0F5F0E4F0F5F0F5E8F9351
:1055E000062412240F4A0F5F0E4F0F5F0F5EBF534A
:1055F00006240F4A0F5F0E4F0F5F0F5E8F93062436
:1056000003200C4AB012B6540F4A0F5F0E4F0F5FC3
:105610000F5E8F93082407240F4A0F5F0E4F0F5F12
:105620000F5EBF5308241A53D23FF2905B00532DF4
:10563000042CF2905B005D2D0328D2E329002C3C62
:105640001E427C181F427E181ED280181FD282185C
:105650001ED284181FD286181ED288181FD28A180C
:105660001ED28C181FD28E181ED290181FD29218DC
:105670001ED294181FD296181ED298181FD29A18AC
:105680000D4E0DDF0D9303248293B0180320D2D367
:105690002900023CD2C329003A4130410A120A4C87
:1056A0008A93140005241F4A14009F4A160016000E
:1056B0008A93160005241F4A16009F4A14001400FE
:1056C000829AC2230320924A1400C223829AC423DE
:1056D0000320924A1600C423301218000E430C4ACD
:1056E000B0121E7A2153B290640008110224925322
:1056F00008113C4064001C8208111E43B01210794E
:10570000C24C532D3A4130410A120B1208120912B1
:105710004A4C0B4E58410A004A9317240B93152408
:10572000CB9A13000E20094B0F4B1B4F14004893CC
:1057300004240C49B0129C56F13F0C49B012A64209
:10574000ED3F0F4B1B4F1400E93F3040E6780F4C04
:105750005D4F03007DF0C0005C4E03007CF0C00094
:105760004D9C1A20DF9E040004001620DF9E0500D9
:1057700005001220DF9E070007000E20DF9E0800B4
:1057800008000A205D4F06007DF003005C4E060015
:105790007CF003004D9C02243C433041DF9E090015
:1057A0000900022C1C4330410C4330410A120B12F9
:1057B0000812091206120B4C4A4EDB930000042813
:1057C000FB90FA00000002280C43BB3CFB90130046
:1057D000010002280C43B53CC2935B2D19204A936B
:1057E0001720FB90A00009001328FB405F00090070
:1057F0005E4B01003EF0FF003E530C4BB012765260
:105800005F4B01003FF0FF000E4B0E5FCE4CFFFFE1
:10581000C2935C2D2B244A932920C2935B2D202018
:10582000664B36F0FF00D69B0900602D072C36F042
:10583000FF000F4BDF86602D0900023CCB430900BF
:105840005E4B01003EF0FF003E530C4BB01276520F
:105850005F4B01003FF0FF000E4B0E5FCE4CFFFF91
:10586000C2935B2D03200C4BB012BA464A931D2005
:105870001842C22308931924C89312001224D89BFB
:10588000010012000E200E4B0C48B0124E570C8334
:1058900003241C830324053C0C43533C0C48B012E6
:1058A0009C560F48184F1400E53F3840621A3940A3
:1058B0006400395309934438C89312003E205F4B6B
:1058C00001003FF0FF000F120E4B0C48B012027A9D
:1058D000D84B01001200C8431300884314009842BB
:1058E000C423160021538293C42304241F42C423DB
:1058F0008F4814008248C4238293C2230220824826
:10590000C223829308110224B25308116C4B3CF05D
:10591000FF00B01224543C4064001C8208111E4356
:10592000B0121079C24C532DFB908600000003206A
:10593000F24042005E2D1C43043C38501800B93F31
:105940000C433040E4780A120A4C824AB4184E4A9A
:10595000C24E7E2CE2427F2CF2403500802CC29356
:10596000542D1C240C4AB01272550C930F24F24093
:1059700007007F2CF2403800802CF2401A00812C66
:10598000C243822CF2400300832C083CF240050005
:105990007F2CF2401500802CF243812C5E427F2C3C
:1059A0003EF0FF003E533C407E2CB01276525F42E8
:1059B0007F2C3FF0FF00CF4C7D2C5E427F2C3EF0D1
:1059C000FF003C407E2CB0126A4E3A4130410A1230
:1059D0000B120A4C1A9351383A9000014E341B4274
:1059E000C2230B931824CB93120011246F4B3FF06A
:1059F000FF000F9A0C205E4B12003EF0FF000C4B94
:105A0000B0126A4E0C4BB0129C561C43373C0F4BE5
:105A10001B4F1400E63F0C4AB01242550C93282449
:105A2000B2407E2C00114E4A1F420011CF4E0000A2
:105A3000925300111F420011EF42000092530011D7
:105A40001F420011FF4094000000925300113E409D
:105A500003003C407E2CB01276521F420011CF4C06
:105A600000002E423C407E2CB0126A4E1C43063C85
:105A7000F29007007E2C012003430C433B413A4146
:105A800030410A120A4CF240F0001A18F2400F009E
:105A90001B18D242B2181C18C2431D18F240100045
:105AA0001E18D2431F18D2429C1821181E429C185F
:105AB0008E103EF0FF00C24E201892539C18B01278
:105AC00066443CB2042CD2423A112218033CF24004
:105AD0007F002218301204003E407C183C402418FD
:105AE000B012027A4E4AC24E2818D242532D2318C1
:105AF0005E421E183EF0FF003E533C401A18B012A2
:105B00007652C24C29185E421E183EF0FF003C40FF
:105B10001A18B0123A4C1C4321533A4130410A1230
:105B20000B1208120A4C8293B21802200C438B3CD1
:105B30000A9302200C43873CF240F0001A18F2400E
:105B40000F001B18D242B2181C18C2431D18F24095
:105B500011001E18E2431F18D2429C1821181E4241
:105B60009C188E103EF0FF00C24E201892539C18D5
:105B7000B01266443CB2072CC2935B2D0420D24283
:105B80003A112218033CF2407F002218D2423C1105
:105B90002918301204003E407C183C402418B012F2
:105BA000027AC2432818D242532D2318B2402A1831
:105BB00002110B4A2842215308932D240B932B24C6
:105BC0005F4B12003FF0FF000F120E4B1C42021100
:105BD000B012027A1F4202115E4F02007EF0F00006
:105BE00021537E90300004241C420211B012E2477F
:105BF000D25B12001E18D2532818DB423C1113004E
:105C00005F4B12003FF0FF00825F021138530F4BD1
:105C10001B4F1400D13F5E421E183EF0FF003E5362
:105C20003C401A18B01276521F420211CF4C0000AD
:105C30005E421E183EF0FF003C401A18B0123A4C6B
:105C4000B0128C521C433040E8780A124A4CF240A1
:105C5000F0001A18F2400F001B18D242B2181C189C
:105C6000C24A1D18F2400A001E18F24006001F1812
:105C7000D2429C1821181E429C188E103EF0FF0044
:105C8000C24E201892539C185E421E183EF0FF0030
:105C90003E533C401A18B0127652C24C23185E4252
:105CA0001E183EF0FF003C401A18B0123A4C3A4120
:105CB00030410A120B124A4C4B4EF240F0001A18B7
:105CC000F2400F001B18D242B2181C18C24B1D180C
:105CD000F2400A001E18F24005001F18D2429C181C
:105CE00021181E429C188E103EF0FF00C24E201854
:105CF00092539C18C24A22185E421E183EF0FF00C2
:105D00003E533C401A18B0127652C24C23185E42E1
:105D10001E183EF0FF003C401A18B0123A4C3B41AE
:105D20003A4130410A120B124B4C4A4EF240F000FD
:105D30001A18F2400F001B18C2431C18C24A1D1843
:105D4000F2400B001E18F24003001F18D2429C18AC
:105D500021181E429C188E103EF0FF00C24E2018E3
:105D600092539C18C2432218C24B23185E421E183D
:105D70003EF0FF003E533C401A18B0127652C24C1F
:105D800024185E421E183EF0FF003C401A18B01264
:105D90003A4C4F4A3FF0FF000F5F0E4F0F5F0F5E10
:105DA000BF40C00008241C433B413A4130415E42A1
:105DB0001F185E8304245E8302245E830F205F42EB
:105DC0001D183FF0FF000F123E4000013C40421AF8
:105DD000B012FC5421530C931120023C0C4330416F
:105DE0005F421C183FF0FF000F123E4000013C4094
:105DF000421AB012FC5421530C9334243C401A181C
:105E0000B012CE520C9302241C4330413C401A186D
:105E1000B0121C53F29003001F180E20D253221808
:105E20005E421E183EF0FF003E533C401A18B0126E
:105E30007652C24C24180C3CB012A27A3E40280084
:105E4000B01210793E5005003C400E00B012484F91
:105E50005E421E183EF0FF003C401A18B0123A4C49
:105E60001C4330410C4330410A120B120812091234
:105E700021830A4C0B4E0B9305240F43824F0E2AAD
:105E8000824F0C2A1F420C2A3F90140002283040F7
:105E900016640F5F104F985EC05EEE5E025F285F73
:105EA0007C5FCC5F24608460BC60FC606C61CA6114
:105EB00032629A62EE620A63A863E2631A64126451
:105EC00030120300701246007E4046007C403000D5
:105ED000B0128E45E2C31D003E4000013C400F0061
:105EE000B0122A4F92430C2A215230401A643C408F
:105EF0000F00B012B64F0C93022030401A64A24338
:105F00000C2AE2D31D001C43B0123C4AB2400500EB
:105F1000142A3E4080003C400F00B0122A4FB2408D
:105F200003000C2A30401A643C400F00B012B64FF8
:105F30000C93022030401A6430120300701250009B
:105F40007E4050007C405000B0128E457C402B00BB
:105F5000B012CE4B7C402B00B012CE4B7C402B00BD
:105F6000B012CE4B3E4080003C400F00B0122A4F92
:105F7000B24007000E2AA2420C2A21523C400F00D8
:105F8000B012B64F0C9310241F42142A3F53824F75
:105F9000142A0F93042082430C2A30401A64B24022
:105FA00003000C2A30401A640C41B012744B0C935D
:105FB000022030401A64F1904F000000022430406B
:105FC0001A64B24005000C2A30401A643C400F00AD
:105FD000B012B64F0C9310241F42142A3F53824F25
:105FE000142A0F93042082430C2A30401A64B240D2
:105FF00003000C2A30401A640C41B012744B0C930D
:10600000022030401A64F1904B000000022430401E
:106010001A640C41B012744B0C93FB2392420E2A6B
:106020000C2AFB3D3C400F00B012B64F0C930E24DF
:106030001F42142A3F53824F142A0F930320824396
:106040000C2AEB3DB24003000C2AE73D3C40802D7A
:106050001C52102AB012744B0C93DF251F42102AD9
:10606000FF900D00802D0B208293102AD6251F4211
:10607000102ACF43802D92420E2A0C2ACE3D9253F5
:10608000102ACB3D30120300701231007E405000C8
:106090007C402000B0128E453E4005003C403F7DD4
:1060A000B0123A4C3E4080003C400F00B0122A4FE4
:1060B000B2420E2AA2420C2A2152AF3D30120300F6
:1060C000701232007E4050007C402000B0128E459D
:1060D0003E4005003C40397DB0123A4C3E408000C5
:1060E0003C400F00B0122A4F8243102AB2400900F0
:1060F0000E2AB24006000C2A21528F3D3C40802DD2
:10610000B0128C78824C122AB290E407122A0E2028
:106110000312701230007E4032007C404500B01205
:106120008E45B24012000C2A2152773D30120300F6
:10613000701233007E4050007C402000B0128E452B
:106140003E4005003C40337DB0123A4C3E4080005A
:106150003C400F00B0122A4F8243102AB2400A007E
:106160000E2AB24006000C2A2152573D3C40802D99
:10617000B0128C78084CB01278443CF00F00089CA8
:106180000424B2400F000C2A483D30120300701264
:1061900034007E4050007C402000B0128E453E40CE
:1061A00005003C402D7DB0123A4C3E4080003C4002
:1061B0000F00B0122A4F8243102AB2400B000E2A61
:1061C000B24006000C2A2152283D3C40802DB012DE
:1061D0008C78084CB01278447CF00F007E400900A7
:1061E000B0120C798E11089E0424B2400F000C2AC4
:1061F000143D30120300701235007E4050007C4088
:106200002000B0128E453E4005003C40457DB01256
:106210003A4C3E4080003C400F00B0122A4F82436F
:10622000102AB2400C000E2AB24006000C2A21525D
:10623000F43C0A9306243C40802DB0128C781C93C9
:1062400008200A930A203C40802DB0128C782C92B2
:106250000424B2400F000C2AE03C301203007012FC
:1062600036007E4050007C402000B0128E453E40FB
:1062700005003C40277DB0123A4C3E4080003C4037
:106280000F00B0122A4F8243102AB2400D000E2A8E
:10629000B24006000C2A2152C03C3C40802DB01276
:1062A0008C780C930424B2400F000C2AB63C3012B8
:1062B0000300701237007E4050007C402000B01276
:1062C0008E453E4005003C40217DB0123A4C3E4098
:1062D00080003C400F00B0122A4F8243102AB24087
:1062E0000E000E2AB24006000C2A2152963C3C4079
:1062F000802DB0128C782C930424B2400F000C2A0D
:106300008C3CB24010000C2A883C30120300701202
:1063100038007E4050007C402000B0128E453E4048
:1063200016003C400A7DB0123A4C3E400D003C4005
:10633000FC7CB0123A4C3E4011003C40EA7CB0126A
:106340003A4CB0127844084CB012784421520A9367
:1063500002241943013C294238F00F0008127CF056
:106360000F007E400900B0120C798E110E12091236
:106370003E404B7D3C401A18B012A67C824C142A39
:106380001E42142A3C401A18B0123A4C3E400001FA
:106390003C400F00B0122A4FB24010000E2AA24219
:1063A0000C2A31500600393C3012030070123900BB
:1063B0007E4050007C402000B0128E453E400500DB
:1063C0003C40E47CB0123A4C3E4080003C400F0020
:1063D000B0122A4FB24011000E2AA2420C2A2152BA
:1063E0001C3C3012030070124C007E4046007C4082
:1063F0002000B0128E45B012624B21520C930D2436
:106400000C43B0123C4AD2D32900B24013000C2AEC
:10641000043C1C43033C82430C2A0C432153304070
:10642000E6785C4228007CF3B012F0797CE007004B
:1064300030410A120B1208120912B012BA4AB012F5
:106440003A490C930E24B01266442CB302285C43E4
:10645000013C4C431E433CF0FF00B012685E824397
:10646000162A1F42162A0F830B241F831A241F8308
:106470001F241F8337241F834E241F836E248F3DC8
:10648000B01266442CB302285C43013C4C430E43DB
:106490003CF0FF00B012685E0C9383259243162AED
:1064A000803DB2401A180A11A243182AA243162AA4
:1064B0001C420A11B012744B0C9311241F420A1192
:1064C000FF90F00000000B2092530A113E40600044
:1064D0000C43B0122A4FB2400300162A623DB0129C
:1064E00034415F3D1C420A11B012744B0C930B24D3
:1064F0001F420A11FF900F000000052092530A115D
:10650000A242162A4E3D0C43B012B64F0C934925B9
:106510009243162A463D1C420A11B012744B0C934A
:10652000142492530A119253182AB2906100182A27
:10653000142CB2900500182A34395F421E183FF01F
:10654000FF00829F182A09342C3D0C43B012B64F2D
:106550000C9327259243162A243D5E421E183EF0D6
:10656000FF003E533C401A18B01276525F421E188C
:106570003FF0FF005F4F19183FF0FF000C9F03240E
:106580009243162A0E3D5F421D183FF0FF001F92F6
:10659000B21803249243162A043D5A421C185E4244
:1065A0001F185E83C3245E8315245E83F520431287
:1065B0001E420E145C422318B0120857D2533C11ED
:1065C0002153C2933C110220D2433C1112C312103A
:1065D0000E18E23C3C401A18B012CE520C931B2409
:1065E0005E421C185C422918B012245DB012A27AD7
:1065F0003E401200B01210790F4E0E5E0E5E0F5E1E
:106600000E5E0E5F3E501A003C400E00B0122A4F44
:106610009243162AC13C4F4A3FF0FF000F5F0E4FD6
:106620000F5F0F5EDF4223180A241E4224181F4208
:1066300026184C4AB01268535F421E183FF0FF0004
:106640003F50EFFF094FB2402A180A1119934E38F4
:106650001F420A115B4F01001F420A113BF0FF006D
:106660000F5B584FFFFF38F0FF004E4B3EF0FF002E
:106670003E531C420A11B0127652089C3420F25349
:1066800028181F420A114E4A7EF0E000CFDE0000BB
:106690001F420A115E4F01003EF0FF003E531C42B4
:1066A0000A11B01276521E420A111F420A115F4FA0
:1066B00001003FF0FF000E5FCE4CFFFF4E431C4237
:1066C0000A11B012AC571F420A115F4F01003FF090
:1066D000FF00098F1F420A115F4F01003FF0FF00CA
:1066E000825F0A11B33F9243162A5B3CC29328187B
:1066F00053205E421C185C422918B012245DB0126F
:10670000A27A3E401200B01210790F4E0E5E0E5E5D
:106710000F5E0E5E0E5F3E501A003C400E00B0123F
:106720002A4F3C401A18B0121C53363C4F4A3FF0D7
:10673000FF000F5F0E4F0F5F0F5EDF4223180A242A
:106740001E4224181F4226184C4AB0126853C293A6
:1067500028180B205F421C183FF0FF000F5F0E4F00
:106760000F5F0F5E8F93082417205E421C184C4366
:10677000B012245DB012A27A3E401200B01210791D
:106780000F4E0E5E0E5E0F5E0E5E0E5F3E501A00E6
:106790003C400E00B0122A4F9243162A023C92430C
:1067A000162A3040E6781F421A2A0F8306243F80BB
:1067B00005000F242F824024A63CB012484D0C93B4
:1067C000A424B24005001A2AB2407E2C0011824354
:1067D000B8181C420011B012E44D0C932224A2936D
:1067E000B8180A203C407E2CB0128A414C930424F5
:1067F0003C407E2C30406E41925300119253B818A9
:10680000B012D64FB2900300B8187F385F427F2C89
:106810003FF0FF00829FB8187838B24009001A2A6A
:1068200030419293B8187138B012E24F3C900B008F
:106830006C2882431A2A3041D2427F2C902D5E422E
:10684000902D3EF0FF003E533C407E2CB01276521D
:106850005F42902D3FF0FF005F4F7D2C3FF0FF0027
:106860000C9F032482431A2A30415C427E2C3CF068
:10687000FF00B01242550C93032082431A2A304184
:10688000B2404000B0185E42802C6E8239247E8077
:10689000110036247E801B001F247E8005000D24FD
:1068A0007E804B002D246E832B247E800D002824B7
:1068B0006E8226245E832424163CF2900500902DDF
:1068C0000820D293812C05203C407E2CB012384009
:1068D000033CE292902D14205C427E2C3CF0FF00A1
:1068E000B012CE590D3CD293812C0A203C407E2C14
:1068F000B01238405C427E2C3CF0FF00B012CE5902
:1069000082431A2A304182431A2A30410A120B125A
:10691000B012BA4A8293B0181620F2933A11132497
:10692000F2433A11C2434F2D301220000E433C4037
:10693000421AB0121E7A92539E188263A018B24077
:106940000B00AA182153B0123A490C931224925307
:106950009E188263A018B01266442CB302285C43D0
:10696000013C4C431E433CF0FF00B012685E824382
:106970001C2A1F421C2A0F830A241F831C241F83E6
:106980001F241F834B251F8362253040786FB01270
:1069900066442CB302285C43013C4C430E433CF05C
:1069A000FF00B012685E0C93022030407C6F92436F
:1069B0001C2A30407C6FB2401A180C11A2431E2AC8
:1069C0001C420C11B012744B0C9312241F420C1178
:1069D000FF90F00000000C2092530C113E4060002C
:1069E0000C43B0122A4FB24003001C2A30407C6F87
:1069F0003C400E00B012B64F0C93022030407C6F2A
:106A0000B01266443CB26C2CB2900C00AA186838E4
:106A1000C2934F2D6520B0128A442CB3042CB012BF
:106A20008A441CB30328A293BA185A24C293502D47
:106A30004524B2901700AA180638D242502D4E2D88
:106A4000C243502D4D3C1C42AA183E400300B012D8
:106A500010790E9345205E42502D5C42B218B01260
:106A6000B25CF2433B119253AA18B24040000411A9
:106A7000B012A27A3E400A00B01210790C4EB01249
:106A8000BA79B012F8791C5204110E4C3C400E0039
:106A9000B0122A4FB012A27A3E400A00B01210790A
:106AA0000C4EB012BA793C50000812C30C100E4CB8
:106AB0003C400D00B0122A4F30407C6FB29038003D
:106AC000AA180E38D2424E2D502DC2434E2DC293DD
:106AD000502D0424B2400C00AA18023C8243AA188C
:106AE0001C42C223B0121E5B0C934C24F2933A1149
:106AF0001A24B012A27A3E400A00B01210790C4E4D
:106B0000B012BA79B012F8790E4C1E5204115C42E0
:106B10003A113CF0FF00B012B8790E5C3C400E0018
:106B2000B0122A4F123CB012A27A3E400F00B012AF
:106B300010790F4E0E5E0E5E0F5E0E5E0E5F3E50C3
:106B40001A003C400E00B0122A4FB290000204110D
:106B5000062C1C420411B012F479825C0411F293E9
:106B60003A1107203E4000043C400D00B012484F4F
:106B7000063C3E4000083C400D00B012484F925386
:106B8000AA18FC3D3C400D00B012B64F0C93F62500
:106B9000A293BA182220B0128A441CB3042CB0125B
:106BA0008A442CB31A281C43B012825AB0128C5259
:106BB000B012A27A3E400A00B01210790C4EB01208
:106BC000BA793E400A00B012F4783C5040000E4CB6
:106BD0003C400D00B0122A4FD13DF2933A110624E9
:106BE0000C43B012825AC243512D053C1C43B012D3
:106BF000825AB0128C52B012A27A3E400A00B012F1
:106C000010790C4EB012BA793C5000080E4C3C4042
:106C10000D00B0122A4F9253AA18B03D1C420C111D
:106C2000B012744B0C930B241F420C11FF900F00F9
:106C30000000052092530C11A2421C2A9F3D0C43D8
:106C4000B012B64F0C939A2592431C2A973D1C42D2
:106C50000C11B012744B0C93202492530C119253CC
:106C60001E2AB29061001E2A0B2CB29005001E2A2B
:106C700085395F421E183FF0FF00829F1E2A7E3931
:106C80001C4214181C529001B012D27C3C400E00E1
:106C9000B012B64F0C930920143C0C43B012B64FFF
:106CA0000C936C2592431C2A693DB012A27A3E4097
:106CB0002800B01210793E5005003C400E00B01282
:106CC0002A4F5E421E183EF0FF003E533C401A1809
:106CD000B01276525F421E183FF0FF005F4F191846
:106CE0003FF0FF000C9F032492431C2A473D5F4264
:106CF0001D183FF0FF001F92B2185624D2932D1892
:106D00005324B01266443CB2042CB012AE5D0C9316
:106D10004820F29003001F184424B012A27A3E408B
:106D20002800B01210793E5005003C400E00B01211
:106D3000484FD2921C184E2D34245E421F185E8399
:106D400003245E8318242D3CF290030022180B2CA0
:106D5000D2923B112218072CD24222183B11D24268
:106D60001C18502D1E3CD2921C18502D1A20D242B5
:106D700022183B11163CF290030022180B2CD292E1
:106D80003B112218072CD24222183B11D2421C1868
:106D9000502D073CD2921C18502D0320D2422218AD
:106DA0003B1192431C2AEA3C3C401A18B012CE52C6
:106DB0000C931E24E2931F1806205E421C185C42AE
:106DC0002918B012245DB012A27A3E401200B0120F
:106DD00010790F4E0E5E0E5E0F5E0E5E0E5F3E5021
:106DE0001A003C400E00B0122A4F92431C2AC63CA7
:106DF0003C401A18B0121C535E421F186E83482480
:106E00005E8305246E837D245E83A924B23CB24058
:106E1000C003B01853121E42C2235C422318B012A2
:106E20000857D24222183A11D2533C112153C2932F
:106E30003C110220D2433C11B2404000041112C365
:106E400012100E188243AA18C293512D9224925305
:106E5000A2188263A418B2901000A4181628032068
:106E60008293A218122812C31210A8181210A61882
:106E70001211A8181210A61812C31210A41812107A
:106E8000A2181211A4181210A218C243512D713C5D
:106E9000B2402A180C111F420C115A4F01001F4218
:106EA0000C113AF0FF000F5A5B4FFFFF3BF0FF0061
:106EB0004E4A3EF0FF003E531C420C11B012765277
:106EC0000B9C57201C420C11B012EE400C93512425
:106ED0005E421C185C422918B012245DB012A27ADE
:106EE0003E401200B01210790F4E0E5E0E5E0F5E25
:106EF0000E5E0E5F3E501A003C400E00B0122A4F4C
:106F0000383CB01266443CB2342CF29003003A1183
:106F1000302CC2933A110624D2933A112A28C293F4
:106F20004F2D27245C422218B0124A5CD2933A11AA
:106F30000928C2934F2D06245E424F2D5C42221831
:106F4000B012B25C5F4222183FF0FF000F123E40C9
:106F500000013C40421AB012E85321530A3C5F4200
:106F600022183FF0FF001F92B2180320D2421C18D3
:106F70004F2D92431C2A023C92431C2A3B413A412A
:106F800030410A120B1208121F420E110F832324E4
:106F90003F800500B1241F839E243F800300D4243A
:106FA0001F83B0251F83B4213C400A00B012B64FA6
:106FB0000C93AE253E4003003C400A00B0122A4F1D
:106FC000A2430611D243542D1C43B0124659B2407D
:106FD00006000E119D3D3C400A00B012B64F0C93C6
:106FE00097251F42202A1F53824F202A3F902000BE
:106FF00024348293061106201C42202AB0124255E6
:107000000C9386258293061104201C42202AB0127C
:107010008A553E4003003C400A00B0122A4F1C42F1
:10702000202AB012F4420C9304201C42202AB012F1
:107030004659B24006000E116B3D8293061107249B
:10704000B2530611D2E3542D8243202A613DB290FF
:107050002000202A0B209253202AD243542DB29094
:1070600020001011073892431011043C8243202A5B
:10707000C243542D5B434B934B25C293542D0D2497
:107080001C421011B01242550C930724B2902000FC
:107090001011033492531011F33FB29020001011DD
:1070A00013343E4003003C400A00B0122A4F1C42F9
:1070B0001011B0124659C293542D02209253101150
:1070C000B24006000E11243DB2902000101120396C
:1070D000924310111D3DB012484D0C9319252E43BB
:1070E0001C43B0122A4FB2407E2C00118243B818C4
:1070F000B24005000E110C3D1C43B012B64F0C936C
:10710000022482430E11B290D000B8180A2CA29328
:10711000B8180B385F427F2C3FF0FF00829FB818F1
:107120000438B24009000E11F33C1C420011B012A9
:10713000E44D0C93ED24925300119253B8182E4352
:107140001C43B0122A4FE43CA293B818D8385E42D0
:107150007F2C3EF0FF003E533C407E2CB012765216
:107160005F427F2C3FF0FF005F4F7D2C3FF0FF0020
:107170000C9FC5205F427E2C3FF0FF001F92B41889
:10718000BE208293B21807241F42B2183FF01F009E
:10719000829FB4180A2CB01222643CF0FF00B01297
:1071A000BC791CD2B418824CB2181C42B418B0126C
:1071B0002454C293542D0D205E42802C7E80930077
:1071C0009E20B0124A524E433C407E2CB012AC5727
:1071D000963CD242802C552DD242812C5F2D12122A
:1071E000B4183E401F003C403E1AB012E8532153F1
:1071F000F2908F00552D0A201212B4183E401F0045
:107200003C40AC18B012E8532153093C1212B41898
:107210003E401F003C40AC18B0127A542153D29328
:107220005F2D0F205E42552D7EF0F0007E903000E5
:107230000820B0124A525E433C407E2CB012AC573C
:10724000313CF2908200552D2D20C2935C2D0724F5
:10725000F2927F2C04283C407E2CB012E251F29036
:107260000D007F2C1F28B0124A52B01244504A43DE
:107270005A92562D172C4C4A5E42572DB012587A0E
:107280007C500700484CF2900C00582D0120785398
:107290004C48B012A4504E433C407E2CB012AC5728
:1072A0005A53E63FF24005007F2CE242802CC24355
:1072B000812CF2908F00552D0724F2908000552DDF
:1072C0000324D2425F2D812C5E427F2C3EF0FF00D2
:1072D0003E533C407E2CB01276525F427F2C3FF0F2
:1072E000FF00CF4C7D2C5E427F2C3EF0FF003C40E7
:1072F0007E2CB0126A4EB2400A000E11093C824345
:107300000E11063CB012484D0C93022482430E111C
:107310003040E8780A120B120A4CF2933A11062414
:107320001F42A6181FD2A8180F9304209A430000EA
:107330000C432B3C9292A818A41805282120929265
:10734000A618A2181D2C1C42A2181D42A4183E40CB
:10735000E8030F43B012747A1E42A6181F42A81801
:10736000B01240790B4C3B90E8030638BA4003005A
:1073700000003C406400093CAA4300000C4B053C63
:10738000BA40030000003C4064003B413A413041B8
:107390000A123C400B00B012B64F0C9308243E403A
:1073A00080003C400B00B0122A4FE2C329001F426C
:1073B000BA180F8307241F8352241F83D7241F83E7
:1073C00004251B3D3C400900B012B64F0C933524F8
:1073D0008243262AB0128A441CB307283C40262A3E
:1073E000B0121473824C222A283CB0128A442CB367
:1073F00008281F42400112C30F100F11824F222A8A
:107400001C3CB0128A442CB207285F424F2D3FF03B
:10741000FF00824F222A113CB0128A443CB2072856
:107420005F42532D3FF0FF00824F222A063C5F420D
:10743000522D3FF0FF00824F222A3C42B012B64F3D
:107440000C93DB24C2932000D8388243242A924331
:10745000BA183E4080023C42B0122A4FCE3CC29342
:1074600020006F343E4019003C42B0122A4FB01247
:107470008A441CB307283C40262AB0121473824C5D
:10748000222ABB3CB0128A442CB308281F42400178
:1074900012C30F100F11824F222AAF3CB0128A4440
:1074A0002CB22A281F42242A1F53824F242A3F909D
:1074B00001010B341212242A3E4000013C40421AC2
:1074C000B012FC5421530C93ED27B2900101242AF1
:1074D00003388243BA18913C9242242A222AB240AD
:1074E0000300262AB2400300BA183E4000053C4083
:1074F0000700B0122A4F813C1F42242A1F53824F9B
:10750000242A3F90FA0006341C42242AB012425525
:107510000C93F227B290FA00242A03388243BA1857
:107520006C3C9242242A222AB2400300262AB2400E
:107530000300BA183E4000053C400700B0122A4F35
:107540005C3C3C42B012B64F0C935724B0128A44B4
:107550001CB3042CB0128A442CB305280E433C40C3
:107560000D00B0122A4FA243BA18473CC293200024
:1075700008348243BA183E4019003C42B0122A4FE8
:107580003C3C3C400900B012B64F0C933624B0127C
:107590008A441CB307283C40262AB0121473824C3C
:1075A000222A2B3CB0128A442CB308281F424001E7
:1075B00012C30F100F11824F222A1F3C9242B6189D
:1075C000222AB2400300262A183C3C400700B01291
:1075D000B64F0C9303248243BA180F3C3C42B012BE
:1075E000B64F0C930A24C293200007389243BA186E
:1075F0003E4080023C42B0122A4FB29013000C2A47
:107600003C203C400900B012B64F0C933624B29097
:10761000E803222A0338B240E703222A1212262A5C
:107620001C42222A3E400A00B01210797E503000DF
:107630004E121C42222A3E400A00B01210793E40EF
:107640000A00B01210797E5030004A4E1C42222AA5
:107650003E406400B01210793E400A00B01210792A
:107660004C4E7C5030004E4AB0128E453E40800059
:107670003C400900B0122A4F21523A413041B240F9
:10768000805A20011C433041B0124443D2D3290018
:107690001312701231007E4030007C403500B01271
:1076A0008E453E4000013C400900B0122A4F215255
:1076B0003C400900B012B64F0C93FA273012030079
:1076C000701231007E4043007C402000B0128E4595
:1076D000301280010E433C40BC18B0121E7A3012AA
:1076E00020000E433C40421AB0121E7A301260094C
:1076F0000E433C40621AB0121E7A301206060E4348
:107700003C400624B0121E7A301220000E433C404A
:107710007C18B0121E7A301220000E433C40602DBF
:10772000B0121E7A301240000E433C40C623B01205
:107730001E7A3012D0020E433C403E11B0121E7A27
:10774000B01266445CF3C24C5B2DB01266443150FB
:1077500014002CB202285E43013C4E43C24E5C2D05
:10776000B012A649B012764CB012484D3012030048
:10777000701232007E4043007C402000B0128E45E3
:10778000B2406C5A2001B01222643CF0FF001C523F
:1077900014181C529001B012D27CB012A27A824C02
:1077A0009C18B240400004118243B018F2433A11D1
:1077B000D2433C118243AA18B0129E4430120300F7
:1077C000701233007E4043007C402000B0128E4592
:1077D00031523C401A18B012744B0C93FA23824376
:1077E000B2180312701220007E4020007C4020005E
:1077F000B0128E452152C2935B2D1724B2406C5AB1
:107800002001B0123264B2406C5A2001B012A66757
:10781000B2406C5A2001B0129073B2406C5A2001F1
:10782000B012A455B012C044E93F3E4040003C4075
:107830000A00B0122A4FB012A27A0F4C3C40000846
:107840000A4C0C4F3E400500B01210791E530C4AF2
:10785000B012F4780E4C3C400D00B0122A4FB240EA
:107860006C5A2001B012826FB2406C5A2001B012E3
:107870000C69B2406C5A2001B0129073B2406C5A3D
:107880002001B012A455B012C044E93F0A124D4382
:10789000013C1C536F4CFFB25F7DFB2F7F902D008E
:1078A00002205D43033C7F902B0001201C530E43BC
:1078B000093C7F4C0E5E0A4E0E5E0E5E0E5A0E5F47
:1078C0003E50D0FF6F4CEFB25F7DF32F4D930224FB
:1078D0003EE31E530C4E3A413041304000403541AA
:1078E000344137413641394138413B413A413041D9
:1078F0007CF37EF30F4E0D4C0E431C430D5D0E6E5C
:107900000E9F01280E8F0C6CF92B30418C118E11BB
:10791000091209430E9303343EE31E5319D30C930B
:1079200003343CE31C5339E3B012F47819B3022456
:107930003CE31C5329B302243EE31E53394130413A
:1079400009120A120B120A430B43394020000C5C47
:107950000D6D0A6A0B6B0A8E0B7F04281CD33953FA
:10796000F623043C0A5E0B6F3953F1230E4A0F4B8A
:107970003B413A4139413041091209430F930534E3
:107980003EE33FE31E530F6319D30D9305343CE3ED
:107990003DE31C530D6339E3B012407919B304245D
:1079A0003CE33DE31C530D6329B304243EE33FE372
:1079B0001E530F63394130410C5C0C5C0C5C0C5C59
:1079C0000C5C0C5C0C5C30417E90100004280D4C6B
:1079D0000C437E8010004E9304240C5C0D6D5E837E
:1079E000FC2330410C110C110C110C110C11304105
:1079F00012C30C1012C30C1012C30C100C110C117A
:107A000030410A121D4104000A4C033CFA4E0000AA
:107A10001A530F4D3D530F93F9233A4130410A1247
:107A20001D4104000A4C033CCA4E00001A530F4D7E
:107A30003D530F93F9233A4130410F4C0F5E033C05
:107A4000CC4300001C530C9FFB2330411112040057
:107A5000B012027A215330417CF37EF3021232C21B
:107A60000343824C3001824E38011C423A011D42D0
:107A70003C010013021232C20343824C3001824E99
:107A80003801824C34011C423A0192423C013A01D5
:107A9000824F3801824D3401824E38011D423A0135
:107AA00000131C4212111D4214113E406D4E3F4006
:107AB000C641B012747A3C5039300D63824C1211B9
:107AC000824D14113DF0FF7F0C4D30410A120B1214
:107AD00008120912061207120C120E122182164108
:107AE0001800814300002F3C4D434E431F410600C8
:107AF0006F4F7F80680004246F8205205E43013C45
:107B00005D43915306001F410600915306006A4FE2
:107B1000474A2F467A8058007C247A800B000B2439
:107B20005A8368247A800B0025246A821A247A807A
:107B300005006F24033C674FA65300001E4116004A
:107B40004C47B0127C7C1F41060091530600674FE2
:107B500077902500C9274793F1232C4131523040BB
:107B6000E2782B4FA65300007C4B4C93EC27B012CD
:107B7000787CFA3FB14202004D9302204E933620AA
:107B80003A4000800B434D935724779064004F2078
:107B9000284F094839E309590979A653000077901D
:107BA00064000C2009930A3438E339E3185309635D
:107BB0001E4116007C402D00B0127C7C099B0328DE
:107BC0000820089A062CB012867C0D93F7232C937C
:107BD000F52FB0126C7C7C5030007C903A00392834
:107BE0007790780034207C502700333C0A433B4098
:107BF0000040243CB1400A0002004D9302204E9305
:107C000003203A401027BE3F3A4000CA3B409A3B0F
:107C1000153CB140100002004D9302204E9303200A
:107C20003A400010AF3F0A433B400010073C284F4A
:107C30000943A6530000C23F4E930524384F394FE5
:107C4000A6520000AC3F77906400A227F03F7C5022
:107C50000700B012787CB0126C7C084E094FB0124D
:107C6000867C0F4C0FDD0F93B4236D3F0C480D49FC
:107C70000E4A0F4B304040791E4118009112080007
:107C80009153020030410C4A0D4B1E4104000F433A
:107C9000B01240790A4C0B4D30412F4ECF4C0000B2
:107CA0009E53000030410C1221830C4E0F413F5077
:107CB0000600814F00000F410F122F530F123E405C
:107CC0009A7CB012CC7A1F410600CF43000031529B
:107CD0003041824C121182431411304104158082CC
:107CE0008F9394004154434E0D002C524F322C522E
:107CF00054322C4D54302C5252302C00504B307892
:107D000035302C5242307835300041544244332CC7
:107D10004344302C464C302C4252302C4353302CB0
:107D200000415452540D00415452520D00415448E8
:107D3000500D00415444540D00415456520D004121
:107D40005445300D004154504C0D00504C25642CCE
:107D5000485025642C445425642C57520D000020B3
:107D600020202020202020202828282828202020EB
:107D7000202020202020202020202020202020889B
:107D800010101010101010101010101010101004FF
:107D9000040404040404040404101010101010104F
:107DA0004141414141410101010101010101010143
:107DB0000101010101010101010110101010101059
:107DC0004242424242420202020202020202020213
:0F7DD00002020202020202020202101010102030
:107DE0007E2C1A184000010064001A181A180B00A3
:107DF000010001000000C0F9A4B0999282F88090BF
:107E000088FFC6A1868EFF89FFFFFFC7FFFFFF8C9B
:0D7E1000FFAFFFFFE3FFFFFFFFFFFFFF01DC
:04FFE400704D884D87
:04FFF000864AF64AFD
:02FFFA00F04EC7
:02FFFE000640BB
:0400000300004006B3
:00000001FF
